{
    "TxHex": "020000000001019121cd2b213845a34dcee6bdad40b931cd5585585f7b31386381e8cbfe21431b0000000000ffffffff012202000000000000225120829ce34aeea2e311d161ae89729a81e5addfc1aa62c997f831a45285faff9d16034089826715998240afac727d8c036df92d0ae458437fb0b3b460cd456cb0b2ac885ba3a22824ac9267954116d8c3cc0479a3367244e0615797fa09c3d2c172d74cf12097a1942bf15ac7823b290a86f2bf44a804aac280bca7243b5adddbc913b12a82ac0063036f7264010117746578742f68746d6c3b636861727365743d7574662d38004cab3c73637269707420743d22302c332c312c302c362c31342c35222069643d2237393022207372633d222f636f6e74656e742f37626134646239363536613034353731633336666666306236646461383738393431323461366361346434623631643663663031346362623531346361613437693022206d3d277b2270223a226272633639222c202273223a2250657065204f7264696e616c73204d617869227d273e3c2f7363726970743e6821c197a1942bf15ac7823b290a86f2bf44a804aac280bca7243b5adddbc913b12a8200000000",
    "TxID": "8e2955284d9f66f56df9c89fedd50103fe68f84ec9f138e4e20c67db15de68ee",
    "Fee": 31860,
    "FeeRate": 177.01,
    "Version": 2,
    "Locktime": 0,
    "Size": 438,
    "Vsize": 180,
    "Adjvsize": 200,
    "Weight": 720,
    "Sigops": 0,
    "Features": {
        "segwit": true/false,
        "taproot": true/false,
        "rbf": true/false
    },
    "BlockInfo": {
        "Confirmed": true/false,
        "TimestampUTC": "2024-04-17T13:23:46Z",
        "BlockHeight": 839640,
        "BlockHash": "00000000000000000002702c76247ddccc2b3d18d0408115b6bb4c8b1e12c16f",
        "MinerInfo": {
            "coinbaseAddr": "37jKPSmbEGwgfacCr2nayn1wTaqMAbA94Z",
            "coinbaseData": "Mined by AntPool F ] mm | } B ] A 9J nC@? m s$ Q"
        }
    },
    "Inputs": [
        "TxID": "1b4321fecbe8816338317b5f588555cd31b940adbde6ce4da34538212bcd2191",
        "Vout": 0,
        "Amount": 32406,
        "Sequence": 4294967295,
        "ScriptSig": "",
        "LockingScriptPubKeyOpCodes": [
            "OP_1",
            "OP_DATA_32",
            "a4f0b377843a561ea899a2b9bd0b6fbddac4a62e34922c54c552988d6e29fb80"
        ],
        "WitnessProgram": [
            "89826715998240afac727d8c036df92d0ae458437fb0b3b460cd456cb0b2ac885ba3a22824ac9267954116d8c3cc0479a3367244e0615797fa09c3d2c172d74c",
            "2097a1942bf15ac7823b290a86f2bf44a804aac280bca7243b5adddbc913b12a82ac0063036f7264010117746578742f68746d6c3b636861727365743d7574662d38004cab3c73637269707420743d22302c332c312c302c362c31342c35222069643d2237393022207372633d222f636f6e74656e742f37626134646239363536613034353731633336666666306236646461383738393431323461366361346434623631643663663031346362623531346361613437693022206d3d277b2270223a226272633639222c202273223a2250657065204f7264696e616c73204d617869227d273e3c2f7363726970743e68",
            "c197a1942bf15ac7823b290a86f2bf44a804aac280bca7243b5adddbc913b12a82"
        ],
    ],
    "Outputs": [
    ]
}

输入明细 (1) ================================
[00] 1b4321fecbe8816338317b5f588555cd31b940adbde6ce4da34538212bcd2191:0  amt=32406 sats  seq=4294967295
     prevScriptType=witness_v1_taproot  addrs=[bc1p5nctxauy8ftpa2ye52um6zm0hhdvff3wxjfzc4x922vg6m3flwqql94m2t]
     [locking scriptPubKey opcodes]
       - OP_1
       - OP_DATA_32 a4f0b377843a561ea899a2b9bd0b6fbddac4a62e34922c54c552988d6e29fb80
     [witness stack]
     witnessItems=3
       #0: sigSchnorr  r=89826715998240afac727d8c036df92d0ae458437fb0b3b460cd456cb0b2ac88  s=5ba3a22824ac9267954116d8c3cc0479a3367244e0615797fa09c3d2c172d74c  sighash=DEFAULT  (64 bytes)
       #1: data (241 bytes)  <leafScript>  hex=2097a1942bf15ac7823b290a86f2bf44a804aac280bca7243b5adddbc913b12a82ac0063036f7264010117746578742f68746d6c3b636861727365743d7574662d38004cab3c73637269707420743d22302c332c312c302c362c31342c35222069643d2237393022207372633d222f636f6e74656e742f37626134646239363536613034353731633336666666306236646461383738393431323461366361346434623631643663663031346362623531346361613437693022206d3d277b2270223a226272633639222c202273223a2250657065204f7264696e616c73204d617869227d273e3c2f7363726970743e68
       #2: data (33 bytes)  <controlBlock>  hex=c197a1942bf15ac7823b290a86f2bf44a804aac280bca7243b5adddbc913b12a82
     [Taproot] path=script annex=false controlLenOK=true
               flag=c1 parity=1 leafVer=c0 ok=true tapscriptV0C0=true
               internalKey=97a1942bf15ac7823b290a86f2bf44a804aac280bca7243b5adddbc913b12a82 merkleCount=0
               prevoutProgram=a4f0b377843a561ea899a2b9bd0b6fbddac4a62e34922c54c552988d6e29fb80
输入明细 ================================

输出明细 (1) ================================
[00] value=546 sats  type=witness_v1_taproot  addrs=[bc1ps2wwxjhw5t33r5tp46yh9x5pukkalsd2vtye07p353fgt7hln5tq763upq]
     [locking scriptPubKey opcodes]
       - OP_1
       - OP_DATA_32 829ce34aeea2e311d161ae89729a81e5addfc1aa62c997f831a45285faff9d16
输出明细 ================================
