raw: 020000000001019121cd2b213845a34dcee6bdad40b931cd5585585f7b31386381e8cbfe21431b0000000000ffffffff012202000000000000225120829ce34aeea2e311d161ae89729a81e5addfc1aa62c997f831a45285faff9d16034089826715998240afac727d8c036df92d0ae458437fb0b3b460cd456cb0b2ac885ba3a22824ac9267954116d8c3cc0479a3367244e0615797fa09c3d2c172d74cf12097a1942bf15ac7823b290a86f2bf44a804aac280bca7243b5adddbc913b12a82ac0063036f7264010117746578742f68746d6c3b636861727365743d7574662d38004cab3c73637269707420743d22302c332c312c302c362c31342c35222069643d2237393022207372633d222f636f6e74656e742f37626134646239363536613034353731633336666666306236646461383738393431323461366361346434623631643663663031346362623531346361613437693022206d3d277b2270223a226272633639222c202273223a2250657065204f7264696e616c73204d617869227d273e3c2f7363726970743e6821c197a1942bf15ac7823b290a86f2bf44a804aac280bca7243b5adddbc913b12a8200000000
{
  "TxID": "8e2955284d9f66f56df9c89fedd50103fe68f84ec9f138e4e20c67db15de68ee",
  "Version": 2,
  "LockTime": 0,
  "Weight": 720,
  "Vsize": 180,
  "Vin": [
    {
      "TxID": "1b4321fecbe8816338317b5f588555cd31b940adbde6ce4da34538212bcd2191",
      "Vout": 0,
      "Sequence": 4294967295,
      "ScriptSig": "",
      "Witness": [
        "89826715998240afac727d8c036df92d0ae458437fb0b3b460cd456cb0b2ac885ba3a22824ac9267954116d8c3cc0479a3367244e0615797fa09c3d2c172d74c",
        "2097a1942bf15ac7823b290a86f2bf44a804aac280bca7243b5adddbc913b12a82ac0063036f7264010117746578742f68746d6c3b636861727365743d7574662d38004cab3c73637269707420743d22302c332c312c302c362c31342c35222069643d2237393022207372633d222f636f6e74656e742f37626134646239363536613034353731633336666666306236646461383738393431323461366361346434623631643663663031346362623531346361613437693022206d3d277b2270223a226272633639222c202273223a2250657065204f7264696e616c73204d617869227d273e3c2f7363726970743e68",
        "c197a1942bf15ac7823b290a86f2bf44a804aac280bca7243b5adddbc913b12a82"
      ]
    }
  ],
  "Vout": [
    {
      "Value": 546,
      "ScriptPubKey": "5120829ce34aeea2e311d161ae89729a81e5addfc1aa62c997f831a45285faff9d16",
      "Type": "v1_p2tr",
      "Addresses": [
        "bc1ps2wwxjhw5t33r5tp46yh9x5pukkalsd2vtye07p353fgt7hln5tq763upq"
      ]
    }
  ]
}